{
  "address": "0x3C4411A9a5814144F44d78b5df5BdAB6FAC9B2Fc",
  "abi": [
    {
      "inputs": [
        {
          "internalType": "address payable",
          "name": "diceGameAddress",
          "type": "address"
        }
      ],
      "stateMutability": "nonpayable",
      "type": "constructor"
    },
    {
      "anonymous": false,
      "inputs": [
        {
          "indexed": true,
          "internalType": "address",
          "name": "previousOwner",
          "type": "address"
        },
        {
          "indexed": true,
          "internalType": "address",
          "name": "newOwner",
          "type": "address"
        }
      ],
      "name": "OwnershipTransferred",
      "type": "event"
    },
    {
      "inputs": [],
      "name": "diceGame",
      "outputs": [
        {
          "internalType": "contract DiceGame",
          "name": "",
          "type": "address"
        }
      ],
      "stateMutability": "view",
      "type": "function"
    },
    {
      "inputs": [],
      "name": "owner",
      "outputs": [
        {
          "internalType": "address",
          "name": "",
          "type": "address"
        }
      ],
      "stateMutability": "view",
      "type": "function"
    },
    {
      "inputs": [],
      "name": "renounceOwnership",
      "outputs": [],
      "stateMutability": "nonpayable",
      "type": "function"
    },
    {
      "inputs": [],
      "name": "riggedRoll",
      "outputs": [],
      "stateMutability": "payable",
      "type": "function"
    },
    {
      "inputs": [
        {
          "internalType": "address",
          "name": "newOwner",
          "type": "address"
        }
      ],
      "name": "transferOwnership",
      "outputs": [],
      "stateMutability": "nonpayable",
      "type": "function"
    },
    {
      "inputs": [
        {
          "internalType": "address payable",
          "name": "to",
          "type": "address"
        },
        {
          "internalType": "uint256",
          "name": "amount",
          "type": "uint256"
        }
      ],
      "name": "withdraw",
      "outputs": [],
      "stateMutability": "nonpayable",
      "type": "function"
    },
    {
      "stateMutability": "payable",
      "type": "receive"
    }
  ],
  "transactionHash": "0x33ca09e5d0a3bb1095ce88f090788d4c890587004791def3fa7d56a9b0350957",
  "args": [
    "0xd108322cd0a4c2a03c5b42c90dd56ba79daa087a"
  ],
  "numDeployments": 1,
  "solcInputHash": "2be2cdb835b31da8e930de474c8049ba",
  "bytecode": "0x608060405234801561001057600080fd5b5060405161069638038061069683398101604081905261002f916100ad565b6100383361005d565b600180546001600160a01b0319166001600160a01b03929092169190911790556100dd565b600080546001600160a01b038381166001600160a01b0319831681178455604051919092169283917f8be0079c531659141344cd1fd0a4f28419497f9722a3daafe3b4186f6b6457e09190a35050565b6000602082840312156100bf57600080fd5b81516001600160a01b03811681146100d657600080fd5b9392505050565b6105aa806100ec6000396000f3fe6080604052600436106100595760003560e01c80636b5e97f814610065578063715018a61461006f5780638da5cb5b146100845780638e288fd1146100ba578063f2fde38b146100da578063f3fef3a3146100fa57600080fd5b3661006057005b600080fd5b61006d61011a565b005b34801561007b57600080fd5b5061006d610237565b34801561009057600080fd5b506000546001600160a01b03165b6040516001600160a01b03909116815260200160405180910390f35b3480156100c657600080fd5b5060015461009e906001600160a01b031681565b3480156100e657600080fd5b5061006d6100f53660046104c2565b61024b565b34801561010657600080fd5b5061006d6101153660046104e6565b6102c4565b66071afd498d0000478111156101775760405162461bcd60e51b815260206004820152601c60248201527f496e73756666696369656e742062616c616e636520746f20706c61790000000060448201526064015b60405180910390fd5b61017f610307565b6101cb5760405162461bcd60e51b815260206004820152601760248201527f596f752063616e27742077696e207468697320726f6c6c000000000000000000604482015260640161016e565b600160009054906101000a90046001600160a01b03166001600160a01b0316637d789dee826040518263ffffffff1660e01b81526004016000604051808303818588803b15801561021b57600080fd5b505af115801561022f573d6000803e3d6000fd5b505050505050565b61023f61031a565b6102496000610374565b565b61025361031a565b6001600160a01b0381166102b85760405162461bcd60e51b815260206004820152602660248201527f4f776e61626c653a206e6577206f776e657220697320746865207a65726f206160448201526564647265737360d01b606482015260840161016e565b6102c181610374565b50565b6102cc61031a565b6040516001600160a01b0383169082156108fc029083906000818181858888f19350505050158015610302573d6000803e3d6000fd5b505050565b600060056103136103c4565b1115905090565b6000546001600160a01b031633146102495760405162461bcd60e51b815260206004820181905260248201527f4f776e61626c653a2063616c6c6572206973206e6f7420746865206f776e6572604482015260640161016e565b600080546001600160a01b038381166001600160a01b0319831681178455604051919092169283917f8be0079c531659141344cd1fd0a4f28419497f9722a3daafe3b4186f6b6457e09190a35050565b6000806103d2600143610512565b6001546040805163057ff68760e51b815290519240935060009284926001600160a01b031691829163affed0e0916004808201926020929091908290030181865afa158015610425573d6000803e3d6000fd5b505050506040513d601f19601f820116820180604052508101906104499190610539565b60405160200161047e9392919092835260609190911b6bffffffffffffffffffffffff19166020830152603482015260540190565b60408051601f198184030181529190528051602090910120905060006104a5601083610552565b949350505050565b6001600160a01b03811681146102c157600080fd5b6000602082840312156104d457600080fd5b81356104df816104ad565b9392505050565b600080604083850312156104f957600080fd5b8235610504816104ad565b946020939093013593505050565b8181038181111561053357634e487b7160e01b600052601160045260246000fd5b92915050565b60006020828403121561054b57600080fd5b5051919050565b60008261056f57634e487b7160e01b600052601260045260246000fd5b50069056fea26469706673582212205f9debaf8835cfd89233f4956315298bc15e0cf5c30c328b08ccf1cf881df8b564736f6c63430008110033",
  "devdoc": {
    "kind": "dev",
    "methods": {
      "owner()": {
        "details": "Returns the address of the current owner."
      },
      "renounceOwnership()": {
        "details": "Leaves the contract without owner. It will not be possible to call `onlyOwner` functions anymore. Can only be called by the current owner. NOTE: Renouncing ownership will leave the contract without an owner, thereby removing any functionality that is only available to the owner."
      },
      "transferOwnership(address)": {
        "details": "Transfers ownership of the contract to a new account (`newOwner`). Can only be called by the current owner."
      }
    },
    "version": 1
  },
  "userdoc": {
    "kind": "user",
    "methods": {},
    "version": 1
  },
  "storageLayout": {
    "storage": [
      {
        "astId": 7,
        "contract": "contracts/RiggedRoll.sol:RiggedRoll",
        "label": "_owner",
        "offset": 0,
        "slot": "0",
        "type": "t_address"
      },
      {
        "astId": 323,
        "contract": "contracts/RiggedRoll.sol:RiggedRoll",
        "label": "diceGame",
        "offset": 0,
        "slot": "1",
        "type": "t_contract(DiceGame)298"
      }
    ],
    "types": {
      "t_address": {
        "encoding": "inplace",
        "label": "address",
        "numberOfBytes": "20"
      },
      "t_contract(DiceGame)298": {
        "encoding": "inplace",
        "label": "contract DiceGame",
        "numberOfBytes": "20"
      }
    }
  }
}