{
  "address": "0xfC7C78703437aBcf1E64F7b24F39D438bd7872A2",
  "abi": [
    {
      "inputs": [
        {
          "internalType": "address",
          "name": "exampleExternalContractAddress",
          "type": "address"
        }
      ],
      "stateMutability": "nonpayable",
      "type": "constructor"
    },
    {
      "inputs": [],
      "name": "ShouldStakeMoreThanZero",
      "type": "error"
    },
    {
      "anonymous": false,
      "inputs": [
        {
          "indexed": true,
          "internalType": "address",
          "name": "staker",
          "type": "address"
        },
        {
          "indexed": false,
          "internalType": "uint256",
          "name": "amount",
          "type": "uint256"
        }
      ],
      "name": "Stake",
      "type": "event"
    },
    {
      "inputs": [
        {
          "internalType": "address",
          "name": "",
          "type": "address"
        }
      ],
      "name": "balances",
      "outputs": [
        {
          "internalType": "uint256",
          "name": "",
          "type": "uint256"
        }
      ],
      "stateMutability": "view",
      "type": "function"
    },
    {
      "inputs": [],
      "name": "deadline",
      "outputs": [
        {
          "internalType": "uint256",
          "name": "",
          "type": "uint256"
        }
      ],
      "stateMutability": "view",
      "type": "function"
    },
    {
      "inputs": [],
      "name": "exampleExternalContract",
      "outputs": [
        {
          "internalType": "contract ExampleExternalContract",
          "name": "",
          "type": "address"
        }
      ],
      "stateMutability": "view",
      "type": "function"
    },
    {
      "inputs": [],
      "name": "execute",
      "outputs": [],
      "stateMutability": "nonpayable",
      "type": "function"
    },
    {
      "inputs": [],
      "name": "stake",
      "outputs": [],
      "stateMutability": "payable",
      "type": "function"
    },
    {
      "inputs": [],
      "name": "threshold",
      "outputs": [
        {
          "internalType": "uint256",
          "name": "",
          "type": "uint256"
        }
      ],
      "stateMutability": "view",
      "type": "function"
    },
    {
      "inputs": [],
      "name": "timeLeft",
      "outputs": [
        {
          "internalType": "uint256",
          "name": "",
          "type": "uint256"
        }
      ],
      "stateMutability": "view",
      "type": "function"
    },
    {
      "inputs": [],
      "name": "withdraw",
      "outputs": [],
      "stateMutability": "nonpayable",
      "type": "function"
    },
    {
      "stateMutability": "payable",
      "type": "receive"
    }
  ],
  "transactionHash": "0x7e5aa196038f63f648d5f18304dd40b5e0f4e8e9c5b04327ab585b27301ea104",
  "args": [
    "0x17a3F0e43B30A650342598C255d678d7fF0Ac8f2"
  ],
  "numDeployments": 1,
  "solcInputHash": "9f41eb1c7557982530f39c16bce2deb0",
  "bytecode": "0x608060405234801561001057600080fd5b5060405161071e38038061071e83398101604081905261002f9161006a565b600080546001600160a01b0319166001600160a01b0383161790556603e871b540c0006002556100614261012c610098565b600355506100bc565b60006020828403121561007b578081fd5b81516001600160a01b0381168114610091578182fd5b9392505050565b600082198211156100b757634e487b7160e01b81526011600452602481fd5b500190565b610653806100cb6000396000f3fe60806040526004361061007f5760003560e01c80633ccfd60b1161004e5780633ccfd60b1461010657806342cde4e81461011b57806361461954146101315780639f75f2271461014657600080fd5b80631300a6d11461009357806327e235e3146100bb57806329dcb0cf146100e85780633a4b66f1146100fe57600080fd5b3661008e5761008c61017e565b005b600080fd5b34801561009f57600080fd5b506100a86102c4565b6040519081526020015b60405180910390f35b3480156100c757600080fd5b506100a86100d6366004610549565b60016020526000908152604090205481565b3480156100f457600080fd5b506100a860035481565b61008c61017e565b34801561011257600080fd5b5061008c6102e8565b34801561012757600080fd5b506100a860025481565b34801561013d57600080fd5b5061008c6103bf565b34801561015257600080fd5b50600054610166906001600160a01b031681565b6040516001600160a01b0390911681526020016100b2565b60008054906101000a90046001600160a01b03166001600160a01b0316639d9a7fe96040518163ffffffff1660e01b815260040160206040518083038186803b1580156101ca57600080fd5b505afa1580156101de573d6000803e3d6000fd5b505050506040513d601f19601f820116820180604052508101906102029190610577565b156102485760405162461bcd60e51b815260206004820152601160248201527014dd185ada5b99c818dbdb5c1b195d1959607a1b60448201526064015b60405180910390fd5b600034116102695760405163618fb2b560e11b815260040160405180910390fd5b33600090815260016020526040812080543492906102889084906105d8565b909155505060405134815233907febedb8b3c678666e7f36970bc8f57abf6d8fa2e828c0da91ea5b75bf68ed101a9060200160405180910390a2565b600060035442106102d55750600090565b426003546102e391906105f0565b905090565b6102f0610539565b61030c5760405162461bcd60e51b815260040161023f90610597565b60045460ff166103525760405162461bcd60e51b8152602060048201526011602482015270149d5b88115e1958dd5d1948199a5c9cdd607a1b604482015260640161023f565b33600090815260016020526040902054806103805760405163618fb2b560e11b815260040160405180910390fd5b336000818152600160205260408082208290555183156108fc0291849190818181858888f193505050501580156103bb573d6000803e3d6000fd5b5050565b60008054906101000a90046001600160a01b03166001600160a01b0316639d9a7fe96040518163ffffffff1660e01b815260040160206040518083038186803b15801561040b57600080fd5b505afa15801561041f573d6000803e3d6000fd5b505050506040513d601f19601f820116820180604052508101906104439190610577565b156104845760405162461bcd60e51b815260206004820152601160248201527014dd185ada5b99c818dbdb5c1b195d1959607a1b604482015260640161023f565b61048c610539565b6104a85760405162461bcd60e51b815260040161023f90610597565b60045460ff161580156104bd57506002544710155b1561052a5760008054906101000a90046001600160a01b03166001600160a01b031663522e1177476040518263ffffffff1660e01b81526004016000604051808303818588803b15801561051057600080fd5b505af1158015610524573d6000803e3d6000fd5b50505050505b6004805460ff19166001179055565b60006105436102c4565b15919050565b60006020828403121561055a578081fd5b81356001600160a01b0381168114610570578182fd5b9392505050565b600060208284031215610588578081fd5b81518015158114610570578182fd5b60208082526021908201527f5761697420666f722074686520636f6e747261637420746f20636f6d706c65746040820152606560f81b606082015260800190565b600082198211156105eb576105eb610607565b500190565b60008282101561060257610602610607565b500390565b634e487b7160e01b600052601160045260246000fdfea2646970667358221220e1473a8d9db2e94c37b4640bec43fd36d545a4a49725d7f471506af4d571c27f64736f6c63430008040033",
  "devdoc": {
    "kind": "dev",
    "methods": {},
    "version": 1
  },
  "userdoc": {
    "kind": "user",
    "methods": {},
    "version": 1
  },
  "storageLayout": {
    "storage": [
      {
        "astId": 42,
        "contract": "contracts/Staker.sol:Staker",
        "label": "exampleExternalContract",
        "offset": 0,
        "slot": "0",
        "type": "t_contract(ExampleExternalContract)12"
      },
      {
        "astId": 46,
        "contract": "contracts/Staker.sol:Staker",
        "label": "balances",
        "offset": 0,
        "slot": "1",
        "type": "t_mapping(t_address,t_uint256)"
      },
      {
        "astId": 48,
        "contract": "contracts/Staker.sol:Staker",
        "label": "threshold",
        "offset": 0,
        "slot": "2",
        "type": "t_uint256"
      },
      {
        "astId": 50,
        "contract": "contracts/Staker.sol:Staker",
        "label": "deadline",
        "offset": 0,
        "slot": "3",
        "type": "t_uint256"
      },
      {
        "astId": 52,
        "contract": "contracts/Staker.sol:Staker",
        "label": "openForWithdraw",
        "offset": 0,
        "slot": "4",
        "type": "t_bool"
      }
    ],
    "types": {
      "t_address": {
        "encoding": "inplace",
        "label": "address",
        "numberOfBytes": "20"
      },
      "t_bool": {
        "encoding": "inplace",
        "label": "bool",
        "numberOfBytes": "1"
      },
      "t_contract(ExampleExternalContract)12": {
        "encoding": "inplace",
        "label": "contract ExampleExternalContract",
        "numberOfBytes": "20"
      },
      "t_mapping(t_address,t_uint256)": {
        "encoding": "mapping",
        "key": "t_address",
        "label": "mapping(address => uint256)",
        "numberOfBytes": "32",
        "value": "t_uint256"
      },
      "t_uint256": {
        "encoding": "inplace",
        "label": "uint256",
        "numberOfBytes": "32"
      }
    }
  }
}